:100000000C94F1000C9419010C9419010C94190131
:100010000C9419010C9419010C9419010C941901F8
:100020000C9419010C9419010C94740C0C94E60CAA
:100030000C9419010C9419010C9419010C941901D8
:100040000C948C070C9436080C9445070C941901F9
:100050000C9419010C9419010C9419010C94FB06D1
:100060000C9419010C94AE0A0C94740A0C941901A6
:100070000C9419010C9419010C9419010C94190198
:100080000C94CF080C9419010C9419010C941901CB
:100090000C9419010C9419010C9419010C94190178
:1000A0000C9419010C9419010C941901490249028C
:1000B0005D02730269027D0287029C02B202D602CF
:1000C000D6025A105D104C10501054107E107E1045
:1000D0007E106110651069106F1073107E1079101A
:1000E0000000000200090F0000030401000C0000E2
:1000F0000000000000000000000000000000000000
:10010000000000250028002B002E00310000000018
:1001100000240027002A002D0030000404040404F9
:10012000030405020202020403020202020606069A
:100130000606060404020202040404080201104038
:100140008040102040804080080204018040201040
:10015000020110801020404020080B000202020122
:10016000000904000001020200000524001001053E
:10017000240101010424020605240600010705816B
:100180000310004009040100020A000000070502F4
:1001900002400000070583024000000403090441F7
:1001A000726475696E6F204C4C43004172647569CE
:1001B0006E6F204D6963726F001201000200000033
:1001C000404123378000010102030112010002EFC8
:1001D00002014041233780000101020301000A119E
:1001E000EC1011241FBECFEFDAE0DEBFCDBF12E06E
:1001F000A0E0B1E0E0EAF6E202C005900D92AC3773
:10020000B107D9F726E0ACE7B2E001C01D92AA36EB
:10021000B207E1F710E0C0EFD0E004C02197FE0183
:100220000E943511CF3ED107C9F70E94230F0C94CD
:1002300043130C940000CF92DF92EF92FF920F9342
:100240001F93CF93DF936C017A018B01C0E0D0E064
:10025000CE15DF0589F0D8016D918D01D601ED91A4
:10026000FC910190F081E02DC6010995892B11F4D4
:100270007E0102C02196ECCFC701DF91CF911F9183
:100280000F91FF90EF90DF90CF900895CF93DF9381
:100290001F92CDB7DEB76983DC01ED91FC9102803E
:1002A000F381E02D41E050E0BE016F5F7F4F099583
:1002B0000F90DF91CF91089583E08093E9008091C2
:1002C000F200882319F08AE38093E8000895FC0186
:1002D0008485958597FD0BC09FB7F89482E0809345
:1002E000E9008091F2009FBF90E0019608959FB7CA
:1002F000F89482E08093E9008091F2009FBF90E043
:1003000008955091C5054091C405852F90E0242F94
:1003100030E0541710F4805B9F4F821B930B0895BD
:100320008091C505E091C4058E1751F0EF5FE0356F
:1003300008F0E0E0F0E0E859FA4F808190E008959D
:100340008FEF9FEF08958091C5059091C40589179F
:1003500069F09F5F903508F090E0E92FF0E0E859F0
:10036000FA4F80819093C40590E008958FEF9FEF3E
:1003700008958091C3058111FCCF0895FB01208170
:10038000822790E1899F900111242827822F90E0F5
:10039000582F44279C0163E0220F331F6A95E1F731
:1003A00042275327218130E02427352774E0959593
:1003B00087957A95E1F78227932791838083089523
:1003C0008091C2058F5F843408F080E09091C10570
:1003D0009817E1F32FB7F8949091C305992341F052
:1003E000E82FF0E0E25EFA4F60838093C2051DC003
:1003F00081E08093C305609363051092620582E0FB
:1004000086BB80916F00826080936F008091800036
:100410008F73806880938000809184009091850024
:10042000409690938900809388002FBF81E090E0F0
:1004300008958F929F92AF92BF92CF92DF92EF92E8
:10044000FF920F931F93CF93DF93CDB7DEB728971B
:100450000FB6F894DEBF0FBECDBF81E596E00E94D7
:100460008101892B09F489C381E596E00E94A301EB
:100470007C01182F10927C0280917F029091800263
:100480008B30910508F0B7C0FC01EA5AFF4F0C947D
:1004900035111E3F09F0AFC082E090E090938002DA
:1004A00080937F0210928B02E0928A028FEF9FEF7F
:1004B00090938902809388029EC0E0928B021092F2
:1004C000810268E872E08E2D0E94BE0184E090E017
:1004D0002EC0E0928C0268E872E08E2D0E94BE0170
:1004E00083E090E024C0E0928D0268E872E08E2DF7
:1004F0000E94BE0185E090E01AC0E0928E0268E89A
:1005000072E08E2D0E94BE0186E090E010C0E09265
:100510008F0268E872E08E2D0E94BE0180918B02EE
:10052000811103C088E090E002C087E090E09093E2
:10053000800280937F025FC0E091810281E08E0F94
:1005400080938102F0E0E057FD4FE08268E872E0BE
:100550008E2D0E94BE019091810280918B02981392
:100560004AC0E0CFE0918F02F0E0E55DFE4F68E821
:1005700072E080810E94BE01809188029091890280
:100580009927970133272817390719F08AE090E057
:1005900002C089E090E09093800280937F02E09116
:1005A0008102F0E0E057FD4FE08225C00A9741F05C
:1005B0008091890290E0970133272817390711F0BD
:1005C00082E001C081E080937C0281E090E0909322
:1005D000800280937F02E0918102F0E0EF56FD4FB0
:1005E000E08280E191E0E8E8F2E0A0ECB3E0019085
:1005F0000D920197E1F720917C02213099F48091CE
:100600008C028093820280918402909185020097EF
:1006100021F410928702109286020196909385022F
:100620008093840280918B028093C30380917F0228
:10063000909180029093B8038093B70380918102D8
:100640008093B903909182029F5F9093BA03409187
:100650008402509185025093BD034093BC034091A6
:100660007E0250E05093BF034093BE0310927E027F
:100670002230A9F590E0FC01EF56FD4F4081042E99
:10068000000C550B542F4427FC01E057FD4F2081EF
:10069000022E000C330BCA01822B932B9093C103C3
:1006A0008093C00381E080937E0210927C021E3F03
:1006B00079F482E090E09093800280937F02109220
:1006C0008B028FEF9FEF909389028093880255C22F
:1006D00081E090E09093800280937F024EC22223BB
:1006E00009F44BC28091C7038823A9F091E090934D
:1006F000B3038D3109F449C138F4813009F45AC08B
:10070000883109F475C039C28E3109F4EFC08A34DA
:1007100009F471C132C282E592E00E94EA0B809135
:10072000AF039091B003A091B103B091B2030196D1
:10073000A11DB11D8093AF039093B003A093B103AB
:10074000B093B2030497A105B10528F08091B303DB
:10075000882309F409C28091C8039091C903A0912C
:10076000CA03B091CB0380319105A105B10521F4F5
:1007700088E090E0A0E0B0E08093E9049093EA0480
:10078000A093EB04B093EC048091CC038093AE0370
:100790008091CE03482F50E060E070E04093AA03C0
:1007A0005093AB036093AC037093AD038078809358
:1007B000E804E3C12091D6033091D703ADECBCEC43
:1007C0000E943B1143E0969587954A95E1F79093F7
:1007D000D7048093D6048091D8039091D903909345
:1007E000DF048093DE048091E6038093A903C5C1F2
:1007F0008090D0039090D103A090D203B090D30307
:100800008092F5049092F604A092F704B092F80456
:10081000C090D403D090D503E090D603F090D703D6
:10082000C092F104D092F204E092F304F092F40446
:100830006091D8037091D9038091DA039091DB0322
:100840002DEC3CEC40E050E00E944A1100E10E9497
:10085000841129833A834B835C8389819A81AB819C
:10086000BC8133E0B595A795979587953A95D1F7D3
:100870008093ED049093EE04A093EF04B093F00402
:100880003091E4033093FA042091E5032093F904B6
:100890004091E2035091E3035093A8034093A703D0
:1008A0004091A603411169C1323008F466C1263077
:1008B00008F463C121E02093A6038093A2039093E0
:1008C000A303A093A403B093A50380929E039092E8
:1008D0009F03A092A003B092A103C0929A03D0926A
:1008E0009B03E0929C03F0929D0347C121EE3EE200
:1008F00045E652E46091D0037091D1038091D20318
:100900009091D3030E94A41220E030E048EC52E41E
:100910000E94A4120E9418127093E5046093E404EC
:1009200021EE3EE245E652E46091CC037091CD03A6
:100930008091CE039091CF030E94A41220E030E07A
:1009400048EC52E40E94A4120E9418127093E3042F
:100950006093E20421EE3EE245E652E46091D40366
:100960007091D5038091D6039091D7030E94A41271
:1009700020E030E048EC52E40E94A4120E941812D9
:100980007093E1046093E004F8C0C090CC03D09071
:10099000CD03E090CE03F090CF0320E030E0A9013A
:1009A000C701B6010E949F1220E030E040E05FE303
:1009B00087FD05C0C701B6010E94AC1104C0C70184
:1009C000B6010E94AB110E9418127093D504609377
:1009D000D4042091D4033091D503ADECBCEC0E943B
:1009E0003B1123E0969587952A95E1F79093D904DA
:1009F0008093D804C2C020E030E048EC52E460911B
:100A0000C8037091C9038091CA039091CB030E94DF
:100A1000A4126B017C0120E030E0A9010E949F122A
:100A200020E030E040E05FE387FD05C0C701B6018C
:100A30000E94AC1104C0C701B6010E94AB110E9414
:100A400018127093E7046093E60420E030E048EC6D
:100A500052E46091CC037091CD038091CE039091CC
:100A6000CF030E94A4126B017C0120E030E0A901B9
:100A70000E949F1220E030E040E05FE387FD05C068
:100A8000C701B6010E94AC1104C0C701B6010E94A3
:100A9000AB110E9418127093D3046093D20480911A
:100AA000D8039091D9039093DD048093DC04809166
:100AB000DA039091DB03909399038093980320E0ED
:100AC00030E048EC52E46091D0037091D103809102
:100AD000D2039091D3030E94A4126B017C0120E009
:100AE00030E0A9010E949F1220E030E040E05FE387
:100AF00087FD05C0C701B6010E94AC1104C0C70143
:100B0000B6010E94AB110E9418127093D104609339
:100B1000D00420E030E048EC52E46091D4037091BE
:100B2000D5038091D6039091D7030E94A4126B0144
:100B30007C0120E030E0A9010E949F1220E030E01B
:100B400040E05FE387FD05C0C701B6010E94AC111C
:100B500004C0C701B6010E94AB110E941812709325
:100B6000DB046093DA0409C01092AF031092B00363
:100B70001092B1031092B203EECD28960FB6F894FE
:100B8000DEBF0FBECDBFDF91CF911F910F91FF90C0
:100B9000EF90DF90CF90BF90AF909F908F9008958F
:100BA0008F929F92AF92BF92CF92DF92EF92FF927D
:100BB0000F931F93CF93DF935C016B018A018091A8
:100BC0002A01882309F459C08091D605882309F4A5
:100BD00054C08091D30580FF05C08091E000826001
:100BE0008093E000E8018AEFF82E93E0E92E2FE3EE
:100BF000822E3AE3932E2097C9F18FB7F894E092B2
:100C0000E9009091E80095FF06C09091F200282D30
:100C1000291B922F01C090E08FBF911106C0FA945A
:100C2000FF2059F10E94300CE6CF292F30E0C21787
:100C3000D3070CF49C2F8FB7F894E092E900209131
:100C4000E80025FF11C0292F30E0C21BD30BF601AD
:100C5000915020F041914093F100FACFC20ED31E83
:100C60009091E80095FF13C08FBFC5CF5D9A84E6D1
:100C70008093D4051016110644F081E090E0F50150
:100C80009383828380E090E005C0C80103C0909206
:100C9000E800EACFDF91CF911F910F91FF90EF9085
:100CA000DF90CF90BF90AF909F908F900895CF939B
:100CB000DF931F92CDB7DEB7FC018485958597FD44
:100CC00005C02FEF3FEF358724870BC0CE0101967B
:100CD0000E944A0C019719F4898190E002C08FEFBD
:100CE0009FEF0F90DF91CF9108950F931F93CF93B4
:100CF000DF931F92CDB7DEB78C01FC01848595850B
:100D000097FF0EC0CE0101960E944A0C019719F47C
:100D1000298130E002C02FEF3FEFF80135872487AB
:100D2000F801848595850F90DF91CF911F910F91E8
:100D300008950E9435134091CF055091D005209120
:100D4000CD053091CE0542175307B4F49091E800D9
:100D50009570E1F39091E80092FD19C08093F10045
:100D60008091CF059091D00501968F739927892B9B
:100D700019F48EEF8093E8008091CF059091D00513
:100D800001969093D0058093CF0581E0089580E08F
:100D90000895615030F02091F100FC01208301960C
:100DA000F8CF289A84E68093D50508953FB7F89444
:100DB0008091BD059091BE05A091BF05B091C00581
:100DC00026B5A89B05C02F3F19F00196A11DB11DA6
:100DD0003FBFBA2FA92F982F8827820F911DA11DE1
:100DE000B11DBC01CD0142E0660F771F881F991F1E
:100DF0004A95D1F708951F920F920FB60F921124C2
:100E00002F933F938F939F93AF93BF938091B90597
:100E10009091BA05A091BB05B091BC053091B80581
:100E200023E0230F2D3720F40196A11DB11D05C02D
:100E300026E8230F0296A11DB11D2093B8058093CB
:100E4000B9059093BA05A093BB05B093BC058091FA
:100E5000BD059091BE05A091BF05B091C00501965A
:100E6000A11DB11D8093BD059093BE05A093BF0544
:100E7000B093C005BF91AF919F918F913F912F91FA
:100E80000F900FBE0F901F9018951F920F920FB6E4
:100E90000F9211242F938F939F93EF93FF93809141
:100EA0006F008B7F80936F00809181008F7B809398
:100EB00081008091C60520916705205890916605B4
:100EC000893020F49695922B8F5FFACF9093660528
:100ED0008091C5058F5F803508F080E02091C405C2
:100EE000821739F0E82FF0E0E859FA4F90838093A9
:100EF000C5051092C605809181008F7B809381008B
:100F000010926705FF91EF919F918F912F910F9014
:100F10000FBE0F901F9018951F920F920FB60F9251
:100F200011242F933F934F935F936F937F938F93EE
:100F30009F93AF93BF93EF93FF938091860090911F
:100F400087004091670520918100442331F02F7B79
:100F5000209381001092670506C0206420938100D1
:100F600020E8209367053091C605311125C0411155
:100F70006CC02091C7053091C805280F391F3093E8
:100F80008B0020938A0024E026BB20916F00246010
:100F900020936F002091C9053091CA05820F931FDD
:100FA00036952795820F931F90936505809364056E
:100FB00081E08093C60549C0409164055091650564
:100FC0006091C9057091CA05DB01A095B095E091CB
:100FD000670520916605841B950BA817B90768F172
:100FE00026952E2B460F571F3F5F861B970B3930D8
:100FF000A0F32093660580916F008B7F80936F0034
:101000008091C5058F5F803508F080E09091C40520
:10101000891749F0E82FF0E090916605E859FA4FFA
:1010200090838093C505809181008F7B80938100A0
:10103000109267051092C60508C02093660550936C
:101040006505409364053093C605FF91EF91BF910C
:10105000AF919F918F917F916F915F914F913F9150
:101060002F910F900FBE0F901F9018951F920F9207
:101070000FB60F9211242F933F934F935F936F936B
:101080007F938F939F93EF93FF938091C30560911C
:10109000630520918800309189004091C9055091E5
:1010A000CA05909162058A30F8F4240F351F893003
:1010B00019F0762F717001C071E066958F5F791716
:1010C00091F390918000772311F0906C02C09F7390
:1010D00090689093800030938900209388007093EB
:1010E0006205609363054AC09091C205E091C10515
:1010F0009E1319C08A3051F48BE08093C305240FEE
:10110000351F30938900209388003AC01092C305A0
:10111000809180008F738093800080916F008D7F1D
:1011200080936F002DC0EF5FE43408F0E0E0E093BF
:10113000C105F0E0E25EFA4F908190936305109252
:101140006205909180009F739068909380008A3030
:1011500059F48091C9059091CA05280F391F309321
:1011600089002093880009C08091840090918500B7
:101170004096909389008093880081E08093C30516
:10118000FF91EF919F918F917F916F915F914F911F
:101190003F912F910F900FBE0F901F9018951F92A7
:1011A0000F920FB60F9211242F933F934F935F939B
:1011B0006F937F938F939F93AF93BF93EF93FF931F
:1011C00080911E01813041F480911D05811102C082
:1011D00010921C0510921D0580911E01823009F0AD
:1011E00072C18091FC04982F907F903951F1903A10
:1011F00009F449C0903809F057C1E2E0F1E020E07D
:1012000030E08F709081911113C0F901EE0FFF1F34
:101210002E0F3F1FF901E050FF4F82834091FB04E6
:1012200050E06BEF74E08CED95E00E943A1330C112
:10123000981759F32F5F3F4F33962A30310511F736
:1012400033C1E2E0F1E020E030E08F70908198134C
:1012500013C096E09093DC0580578093DD05F9017B
:10126000EE0FFF1F2E0F3F1FF901E050FF4F80814F
:101270008093DE05818108C12F5F3F4F33962A306E
:10128000310521F711C1E2E0F1E020E030E08F709C
:101290009081981302C1F901EE0FFF1F2E0F3F1F1F
:1012A000F901E050FF4F918124E0290F2093DC05E4
:1012B00080568093DD0580814EED55E0FA012E2F9A
:1012C000241B291710F41192FACF8D3009F488C02D
:1012D00098F5863009F4BEC0F8F4833009F4BFC035
:1012E00080F4813009F0D2C08091D8049091D90463
:1012F00020E9280F2093DE0580579E4F9093DF054D
:10130000C5C0843009F4A1C0853009F0BFC09091F8
:10131000DE048091DF04B6C0883009F48CC008F484
:101320008FC0893009F482C08A3009F0AFC0909133
:10133000E6048091E704A6C0823809F461C0C8F4CD
:10134000813409F491C040F48E3009F09FC090912F
:10135000E9048091EA0496C08E3709F48AC0813886
:1013600009F094C08091FA048093DE058091F9041D
:101370008BC0843809F482C0D0F1893F09F451C090
:101380008D3F09F083C08091FA048093DE0580913F
:10139000F9048093DF058091F5049091F604209183
:1013A000F7043091F8043093E0052093E105909321
:1013B000E2058093E3058091F4048093E405809135
:1013C000ED049091EE042091EF043091F0043093FD
:1013D000E5052093E6059093E7058093E80556C060
:1013E0008091E8048093DE051092DF054FC0809164
:1013F000F5049091F6042091F7043091F80408C0A8
:101400008091F1049091F2042091F3043091F4045E
:101410003093DE052093DF059093E0058093E1058E
:1014200035C09091ED048091EE042CC09091E404BD
:101430008091E50427C09091E2048091E30422C0EA
:101440009091E0048091E1041DC09091DC048091B2
:10145000DD0418C09091DA048091DB0413C09091F0
:10146000D6048091D7040EC09091D4048091D50405
:1014700009C09091D2048091D30404C09091D0040B
:101480008091D1049093DE058093DF050E94160CB5
:101490008091DC050E94020C07C02F5F3F4F3396FE
:1014A0002A30310509F0F4CE81E080931E01F894D2
:1014B00010929500109294008FE691E0909399001D
:1014C000809398007894FF91EF91BF91AF919F9195
:1014D0008F917F916F915F914F913F912F910F90DD
:1014E0000FBE0F901F9018951F920F920FB60F927C
:1014F00011242F933F938F939F93EF93FF9390919A
:10150000D9058091D805981730F48091DA0590912B
:10151000DB05009761F41092D9051092D80510925E
:10152000DB051092DA0580E98093C9000CC0209198
:10153000D90531E0320F3093D905FC01E20FF11DDE
:1015400080818093CE00FF91EF919F918F913F9189
:101550002F910F900FBE0F901F9018951F920F9212
:101560000FB60F9211242F933F934F935F936F9376
:101570007F938F939F93EF93FF938091CE00E091A1
:101580001C05F0E0E550FB4F808381E080931D0552
:1015900080911C05803228F480911C058F5F809318
:1015A0001C0580911C05882321F08091FB04813269
:1015B00028F580911C05882321F08091FB0484305C
:1015C000E8F080911C05882321F08091FB0480FDC8
:1015D00015C080911C05823028F18091FC04807F29
:1015E000803801F190911C059230E0F08039D1F003
:1015F00090911C059230B0F0803AA1F010921C0539
:1016000020E02093D705FF91EF919F918F917F91DB
:101610006F915F914F913F912F910F900FBE0F905F
:101620001F90189580911C05843050F390911C05F3
:101630008091FB04981720F310921C059EEF980FE1
:101640002BEF34E0F9014FEF5FEF6E2F621B69174C
:1016500020F46191461B5109F8CF90E085509B4FD3
:10166000FC013197208130E0322F22273197808191
:10167000B901680F711D21E04617570709F6C1CF60
:101680008091620681110DC082E080935E0684E045
:1016900080935F06109261061092600681E080934D
:1016A00062068EE596E00895CF92DF92EF92FF9268
:1016B0000F931F93CF93DF931F92CDB7DEB7182FF1
:1016C000062FE42E862F880F8E5F99830E949B063B
:1016D00083E00E949B06F12EC12E9981D92E8C2D7C
:1016E0008F19801798F4F601E7FE02C0849101C0BB
:1016F00080810E949B06182F80E00E949B06812318
:10170000FFEFCF1ADF0A8111EACF01C081E00F900D
:10171000DF91CF911F910F91FF90EF90DF90CF90CD
:101720000895DF92EF92FF920F931F93CF93DF9371
:10173000D82E8A017B01E40EF51EEB01CE15DF05E4
:1017400071F0D7FE03C0FE01849101C088810E9420
:101750009B0621968111F2CF8FEF9FEF01C0C80148
:10176000DF91CF911F910F91FF90EF90DF9008953F
:101770000F931F93CF93DF931F92CDB7DEB782E015
:10178000898342E450E069E571E080E80E94910BB2
:101790000E94400BDC0112960D911C9113970115CC
:1017A000110569F0D801ED91FC910280F381E02DE3
:1017B000BE016F5F7F4FC801099597FF07C0898100
:1017C0000F90DF91CF911F910F910895F80100853F
:1017D0001185E5CFBC01009791F0FC01019000203C
:1017E000E9F73197AF01481B590BE091FD05F091E6
:1017F000FE050280F381E02D8DEF95E0099480E0F5
:1018000090E00895882389F02CED35E03093DB05D6
:101810002093DA051092D9058093D8051092D70548
:10182000F89488E28093C900789408958091DC054B
:1018300082504CED55E0FA012FEF3FEF9E2F941BA5
:10184000981720F49191291B3109F8CF90E0FC0101
:10185000E452FA4F2083FC01E352FA4F308308959B
:10186000CF92DF92EF92FF920E94D6066B017C012D
:101870000E94D606DC01CB018C199D09AE09BF0977
:10188000883E9340A105B10598F3FF90EF90DF905B
:10189000CF900895FC018091D605811103C08FEF90
:1018A0009FEF08959FB7F89482E08093E90020911C
:1018B000F20030E01216130614F421E030E0211596
:1018C000310559F0289A84E68093D5058091F1007E
:1018D00080838091F200882319F09FBFC901089589
:1018E0008BE68093E800F9CF1F920F920FB60F920C
:1018F00011248F939F938091E1009091E100937F59
:101900009093E10083FF0FC01092E90091E0909363
:10191000EB001092EC0092E39093ED001092D6054C
:1019200098E09093F00082FF20C093E09093E9004C
:101930009091F200992319F09AE39093E800909126
:10194000D405992339F09091D40591509093D40502
:10195000992389F19091D505992339F09091D50576
:1019600091509093D505992341F184FF10C0809147
:10197000E2008E7E81608093E2008091E1008F7EA4
:101980008093E1008091D3058E7E806111C080FF3D
:1019900016C08091E2008E7E80618093E20080918B
:1019A000E1008E7E8093E1008091D3058E7E816080
:1019B0008093D30504C05D98CDCF2898D6CF9F9152
:1019C0008F910F900FBE0F901F9018951F920F923E
:1019D0000FB60F921124CF92DF92EF92FF920F93E6
:1019E0001F932F933F934F935F936F937F938F93A7
:1019F0009F93AF93BF93EF93FF93CF93DF93CDB7B5
:101A0000DEB76C97DEBFCDBF1092E9008091E80091
:101A100083FFFAC168E0CE0145960E94C90682EFB5
:101A20008093E8008D8987FF05C09091E80090FFC2
:101A3000FCCF03C09EEF9093E800982F907609F0BA
:101A4000C6C09E892F89188D91110CC0803829F449
:101A50008091D2058093F10002C01092F1001092A3
:101A6000F10047C1422F50E0512B913051F48111C8
:101A700040C14130510509F03CC18091D2058D7FB4
:101A80000BC0933061F4811134C14130510509F02C
:101A900030C18091D20582608093D2052AC19530F1
:101AA00041F48091E80080FFFCCF20682093E300A0
:101AB00020C1963009F05FC0EB8CFC8C1092E900DD
:101AC0001092D0051092CF05123091F51092CE05EC
:101AD0001092CD050E94B80B99E0BE016F5F7F4F59
:101AE000DB01E92F1D92EA95E9F799831A8391E0CA
:101AF0009E8390EA98879AEF99872091CF0530913D
:101B0000D005275F3F4F3C832B838D831092E900E4
:101B10001092D0051092CF05F092CE05E092CD053F
:101B200049E050E080E00E94910B0E94B80BE1C0B8
:101B3000F092CE05E092CD050E94400BDC0112969A
:101B4000ED90FC901397E114F10409F4C0C0D701A3
:101B5000ED91FC910480F581E02DBE016B5E7F4F1D
:101B6000C7010995009719F00CF0C3C0C6C0F70172
:101B7000E084F184E8CF973009F4BFC0983021F4B5
:101B800081E08093F100B5C0993009F0B2C0837054
:101B900009F0B3C0ECE2F2E081E021E036E39081AD
:101BA000992361F08093E9002093EB009191909349
:101BB000EC003093ED008F5F873089F78EE78093DC
:101BC000EA001092EA008F898093D60592C08B8D2F
:101BD0009C8D1092E9001092D0051092CF05909341
:101BE000CE058093CD05898D811156C08E899D8942
:101BF000913A59F4813209F080C047E050E063E245
:101C000071E080E00E94910B74C0913209F075C0C0
:101C1000833289F4888D90E0982F88272F89822B32
:101C2000A0E0B0E080931F0190932001A0932101D8
:101C3000B09322015EC0803269F48091E80082FF97
:101C4000FCCF67E083E291E00E94C9068BEF8093AE
:101C5000E80006C0823209F04CC08F8980932A01C7
:101C60008091D105882319F0EEEFFAE002C0E0E0A0
:101C7000F8E08091230190912401A0912501B09179
:101C80002601803B9440A105B10509F088C08091F0
:101C90002A0180FFA0C083C00E94400BDC01129685
:101CA0000D911C9113970115110539F1D801ED9192
:101CB000FC910190F081E02DBE016B5E7F4FC80169
:101CC0000995811116C0F80100851185ECCF1130FE
:101CD000C1F0133091F48F89882309F455C0823004
:101CE000E9F440E86DE08BEA91E00E94540B882310
:101CF00021F08EEF8093E80087C081E28093EB00B3
:101D000083C08B8D9C8D089711F410935D06809194
:101D10005D06811136C069EB71E038C0813029F46D
:101D200040E86BE08FE991E0E0CF833031F70E942B
:101D3000400BDC011296ED90FC9013978E010F5F23
:101D40001F4F6801E114F10479F0D701ED91FC9186
:101D50000680F781E02DB801C7010995080F111D14
:101D6000F701E084F184EECFD8011C92F6010190D6
:101D70000020E9F73197BF016C197D0940E0C601E9
:101D8000B4CF6BEC71E002C06BE971E061157105D5
:101D900009F4B3CFFB01449150E080E833CF0FB694
:101DA000F894A895809160008861809360001092FB
:101DB00060000FBEA895EE3F2AE0F20739F080914F
:101DC000FE0A9091FF0A9183808393CF1092FF0ABD
:101DD0001092FE0A8ECFEE3F8AE0F80731F0808144
:101DE00091819093FF0A8093FE0A87E797E791839A
:101DF00080839BE088E10FB6F894A89580936000FB
:101E00000FBE9093600075CF6C960FB6F894DEBF4E
:101E10000FBECDBFDF91CF91FF91EF91BF91AF91F9
:101E20009F918F917F916F915F914F913F912F91F2
:101E30001F910F91FF90EF90DF90CF900F900FBE0A
:101E40000F901F901895789484B5826084BD84B5F6
:101E5000816084BD85B5826085BD85B5816085BDA5
:101E600080916E00816080936E001092810080915D
:101E700081008260809381008091810081608093E5
:101E8000810080918000816080938000809191002A
:101E90008260809391008091910081608093910095
:101EA000809190008160809390008091C100846057
:101EB0008093C1008091C10082608093C1008091B5
:101EC000C10081608093C1008091C30081608093D4
:101ED000C3008091C00082608093C0008091C200E6
:101EE00081608093C20080917A00846080937A0040
:101EF00080917A00826080937A0080917A0081607C
:101F000080937A0080917A00806880937A001092A2
:101F1000D6051092D2051092D3058091D70081602A
:101F20008093D70080EA8093D80089B5806189BD0D
:101F300089B5826089BD09B400FEFDCF0E94300CD6
:101F40008091D8008F7C80618093D8008091E000E0
:101F5000807F8093E0008091E1008E7E8093E1009D
:101F60008DE08093E200559A209A5D982898EEEFD4
:101F7000FFE7859194918B3F9C4D19F481E080930C
:101F8000D1051092CD0080E18093CC008091C800F3
:101F900082608093C80086E08093CA0088E18093C5
:101FA000C9001092D9051092D8051092D705109249
:101FB000DB051092DA058091C90080688093C90022
:101FC000F894109290001092910010929500109247
:101FD000940081EB90E09093990080939800809119
:101FE000910088608093910080919100836080933C
:101FF00091008091710082608093710078941092BA
:102000006F001092800081E88093810086E191E06A
:102010009093CA058093C9058BE09AE09093C80518
:102020008093C705EEE3F1E02491EFE1F1E08491C4
:102030008823C1F090E0880F991FFC01E35FFE4FF9
:10204000C591D491FC01E150FF4FA591B4919FB788
:10205000F8943881822F809583238883EC91E22B3A
:10206000EC939FBFE9EEF0E04491A3E4B1E0FD0101
:10207000C49184E291E0FC012491222309F44DC033
:102080004423E1F150E0FA013197EF30F105B0F56A
:10209000EF59FF4F0C943511309180003F7707C006
:1020A000309180003F7D03C030918000377F3093B6
:1020B000800024C034B53F7702C034B53F7D34BDC5
:1020C0001DC0309190003F7707C0309190003F7D58
:1020D00003C030919000377F309390000FC0309153
:1020E000C0003F7703C03091C0003F7D3093C000F7
:1020F00005C03091C200377F3093C20030E0220F1C
:10210000331F21503F4FF901459154912FB7F89457
:10211000FA013081C32BC0832FBFFD01A491FC01C4
:102120008491882399F090E0880F991FFC01E35F68
:10213000FE4FC591D491FC01E150FF4F85919491E0
:102140008FB7F8949881A92BA8838FBF1092C605EA
:102150001092C5051092C4051092C3051092C205D5
:102160001092C10580E286BB80936F0084E6809365
:10217000CB0582E38093CC058FEF9FEF90930A0607
:10218000809309068DE692E00E94EA0B88E792E0D0
:102190000E94EA0B81E080931E01C2E000E910E09A
:1021A00080911E01813019F0823099F0F9CF809131
:1021B000D705813071F41092D705C0931E01F894B1
:1021C000109295001092940010939900009398003B
:1021D00078940E941902E4CF86E492E0909352062C
:1021E0008093510680916F008B7F80936F00809168
:1021F0006F008F7D80936F008091C4058093C5052B
:102200008091C3058111FCCF80916F008D7F8093F9
:102210006F000895EDEFF5E01382128288EE93E0EF
:10222000A0E0B0E084839583A683B78326E332E001
:10223000318320832FEF3FEF35872487E1E5F6E0F8
:102240001382128284839583A683B78386E492E007
:10225000918380830E94D60660934D0670934E064C
:1022600080934F06909350060895EE0FFF1F059040
:10227000F491E02D0994A29FB001B39FC001A39FE8
:10228000700D811D1124911DB29F700D811D1124AF
:10229000911D089597FB57FF0C945A119F938F93AC
:1022A0000E945A116E1B7F0BAF91BF918A0B9B0B43
:1022B0000895E894DF93CF93FC01DB010E943B116A
:1022C0007F936F93E9019A01AC01BF93AF933F9362
:1022D0002F93DF010E943B1126F46C1B7D0B820BB8
:1022E000930B9E01EB01FC010E94A211AF91BF91E3
:1022F0002F913F910E94A211BE01CF01F9012F91B0
:102300003F91CF91DF91089597FB10F81694000844
:102310000F93083098F00850232F342F452F562F55
:10232000672F782F892F902DF4CF05949795879557
:102330007795679557954795379527950A95AAF705
:102340000F9108950E943B11460F571FC81FD91FB8
:1023500008F4319608955058BB27AA270E94C3114C
:102360000C9465120E94571238F00E945E1220F001
:1023700039F49F3F19F426F40C9454120EF4E095AE
:10238000E7FB0C944E12E92F0E94761258F3BA170D
:10239000620773078407950720F079F4A6F50C947B
:1023A00098120EF4E0950B2EBA2FA02D0B01B90157
:1023B00090010C01CA01A0011124FF27591B99F0BB
:1023C000593F50F4503E68F11A16F040A22F232FC7
:1023D000342F4427585FF3CF469537952795A79517
:1023E000F0405395C9F77EF41F16BA0B620B730BBE
:1023F000840BBAF09150A1F0FF0FBB1F661F771F2F
:10240000881FC2F70EC0BA0F621F731F841F48F4E3
:10241000879577956795B795F7959E3F08F0B0CF6C
:102420009395880F08F09927EE0F97958795089553
:102430000E941F126894B1110C94991208950E9481
:102440007E1288F09F5798F0B92F9927B751B0F0B6
:10245000E1F0660F771F881F991F1AF0BA95C9F728
:1024600014C0B13091F00E949812B1E008950C941C
:102470009812672F782F8827B85F39F0B93FCCF3CF
:10248000869577956795B395D9F73EF490958095A5
:10249000709561957F4F8F4F9F4F089597F99F6774
:1024A00080E870E060E008959FEF80EC08950024DC
:1024B0000A941616170618060906089500240A94A9
:1024C00012161306140605060895092E0394000C2F
:1024D00011F4882352F0BB0F40F4BF2B11F460FFBE
:1024E00004C06F5F7F4F8F4F9F4F089557FD9058E7
:1024F000440F551F59F05F3F71F04795880F97FBC8
:10250000991F61F09F3F79F0879508951216130681
:102510001406551FF2CF4695F1DF08C016161706B0
:102520001806991FF1CF86957105610508940895E5
:10253000E894BB2766277727CB0197F908950E9477
:10254000111308F48FEF08950E94B7120C946512CE
:102550000E94571238F00E945E1220F0952311F06D
:102560000C944E120C94541211240C9499120E9443
:10257000761270F3959FC1F3950F50E0551F629F3F
:10258000F001729FBB27F00DB11D639FAA27F00DCC
:10259000B11DAA1F649F6627B00DA11D661F829FF3
:1025A0002227B00DA11D621F739FB00DA11D621FD8
:1025B000839FA00D611D221F749F3327A00D611DF5
:1025C000231F849F600D211D822F762F6A2F1124D7
:1025D0009F5750409AF0F1F088234AF0EE0FFF1F0A
:1025E000BB1F661F771F881F91505040A9F79E3F61
:1025F000510580F00C944E120C9499125F3FE4F355
:10260000983ED4F3869577956795B795F795E795B6
:102610009F5FC1F7FE2B880F911D9695879597F9BF
:102620000895990F0008550FAA0BE0E8FEEF161663
:102630001706E807F907C0F012161306E407F507B6
:1026400098F0621B730B840B950B39F40A2661F02A
:10265000232B242B252B21F408950A2609F4A140CD
:10266000A6958FEF811D811D089581E090E0F8947B
:102670000C944313FB01DC0102C001900D92415008
:102680005040D8F7089510E0C0EFD0E004C0FE013C
:102690000E9435112196C13FD107C9F7F894FFCFA9
:1026A0000E0200F902007E02000A02000902000880
:1026B000020007020006020004020081020001FF7E
:1026C000FFFFFF00E1000000000000327C8900ED08
:1026D000D96877000000590000000000000000D613
:1026E0009FDCA81817AA90437327F6B968EDF4DEAB
:1026F000D409FEE61C1C84DDE80B9929274EC40092
:10270000000F030000000000A7B777BF7694150004
:10271000F37C000026149E988F0000006A31168F0B
:102720008C059600E7B73F362F000000000000AF91
:10273000669ED0385D8A6C20B95422AE7CED044C84
:1027400080387486EDCBFA57CBDC19E22E1DDF55AD
:1027500006E5CB01C36DA8B52F48837F00679AB209
:10276000C8000000000000000000000000000000A1
:102770000000000000000000000000000000000059
:102780000000000000000000000000000000000049
:102790000000000000000000000000000000000039
:1027A0000000000000000000000000000000000029
:1027B00000A3699723960000000000005A68555F47
:1027C00082B85108CC31AA2C532E0000C180810060
:1027D0000000000000004601D0056701570675069D
:1027E0005C0100000000E0011B018101A3019001D8
:1027F000B9014D41564C494E4B5F4D53475F4944DB
:102800005F4845415254424541543A200053657453
:0C281000757020646F6E65000D0A0000FA
:00000001FF
