:100000000C9400010C9428010C9428010C942801F4
:100010000C9428010C9428010C9428010C942801BC
:100020000C9428010C9428010C944D0C0C94BF0CDA
:100030000C9428010C9428010C9428010C9428019C
:100040000C94D1010C947B020C948A010C9428012D
:100050000C9428010C9428010C9428010C94C510D0
:100060000C9428010C94FC040C94C2040C942801F8
:100070000C9428010C9428010C9428010C9428015C
:100080000C9414030C9428010C9428010C9428015E
:100090000C9428010C9428010C9428010C9428013C
:1000A0000C9428010C9428010C942801C205C20567
:1000B000D605EC05E205F605000615062B064F06EB
:1000C0004F069B129E128D1291129512BF12BF12F3
:1000D000BF12A212A612AA12B012B412BF12BA1202
:1000E00005A84CCDB2D44EB93836A9020C50B991FE
:1000F0008688083CA6AAAA2ABE000000803F080BFA
:1001000000020202010009040000010202000005D1
:10011000240010010524010101042402060524061F
:1001200000010705810310004009040100020A00D4
:10013000000007050202400000070583024000009E
:100140000403090441726475696E6F204C4C4300CE
:1001500041726475696E6F204D6963726F001201A0
:10016000000200000040412337800001010203012A
:1001700012010002EF020140412337800001010219
:1001800003010000000200090F0000030401000C3D
:10019000000000000000000000000000000000005F
:1001A0000000000000250028002B002E0031000078
:1001B000000000240027002A002D00300004040461
:1001C00004040304050202020204030202020206FE
:1001D00006060606060404020202040404080201DC
:1001E0001040804010204080408008020401804080
:1001F0002010020110801020404020002D110F110E
:1002000011241FBECFEFDAE0DEBFCDBF12E0A0E0C9
:10021000B1E0EAE0FEE202C005900D92AA39B10712
:10022000D9F726E0AAE9B2E001C01D92A639B207CB
:10023000E1F710E0CFEFD0E004C02197FE010E946B
:100240007E13CE3FD107C9F70E9464110C94F816B3
:100250000C940000809183068111FCCF0895FB016E
:100260002081822790E1899F900111242827822FE5
:1002700090E0582F44279C0163E0220F331F6A95BA
:10028000E1F742275327218130E02427352774E006
:10029000959587957A95E1F78227932791838083B7
:1002A0000895809182068F5F843408F080E09091F9
:1002B00081069817E1F32FB7F8949091830699235C
:1002C00041F0E82FF0E0EA5BFA4F6083809382060A
:1002D0001DC081E08093830660938B0510928A0590
:1002E00082E086BB80916F00826080936F00809176
:1002F00080008F738068809380008091840090914B
:100300008500409690938900809388002FBF81E0FC
:1003100090E008951F920F920FB60F9211242F9321
:100320008F939F93EF93FF9380916F008B7F8093C8
:100330006F00809181008F7B809381008091860681
:1003400020918F05205890918E05893020F4969544
:10035000922B8F5FFACF90938E05809185068F5FE9
:10036000803508F080E020918406821739F0E82F6C
:10037000F0E0EF5CF94F908380938506109286063B
:10038000809181008F7B8093810010928F05FF9177
:10039000EF919F918F912F910F900FBE0F901F9013
:1003A00018951F920F920FB60F9211242F933F931F
:1003B0004F935F936F937F938F939F93AF93BF936D
:1003C000EF93FF93809186009091870040918F0575
:1003D00020918100442331F02F7B209381001092E3
:1003E0008F0506C020642093810020E820938F05AC
:1003F00030918606311125C041116CC020918706CD
:1004000030918806280F391F30938B0020938A0083
:1004100024E026BB20916F00246020936F00209180
:10042000890630918A06820F931F36952795820F91
:10043000931F90938D0580938C0581E080938606B1
:1004400049C040918C0550918D056091890670914D
:100450008A06DB01A095B095E0918F0520918E056D
:10046000841B950BA817B90768F126952E2B460F0C
:10047000571F3F5F861B970B3930A0F320938E05E3
:1004800080916F008B7F80936F00809185068F5FD6
:10049000803508F080E090918406891749F0E82FB4
:1004A000F0E090918E05EF5CF94F90838093850684
:1004B000809181008F7B8093810010928F05109234
:1004C000860608C020938E0550938D0540938C05B9
:1004D00030938606FF91EF91BF91AF919F918F91DD
:1004E0007F916F915F914F913F912F910F900FBE30
:1004F0000F901F9018951F920F920FB60F92112414
:100500002F933F934F935F936F937F938F939F931B
:10051000EF93FF938091830660918B052091880073
:10052000309189004091890650918A0690918A0500
:100530008A30F8F4240F351F893019F0762F717046
:1005400001C071E066958F5F791791F390918000FB
:10055000772311F0906C02C09F7390689093800095
:10056000309389002093880070938A0560938B05EF
:100570004AC090918206E09181069E1319C08A308C
:1005800051F48BE080938306240F351F309389004C
:10059000209388003AC010928306809180008F7368
:1005A0008093800080916F008D7F80936F002DC0BD
:1005B000EF5FE43408F0E0E0E0938106F0E0EA5B0E
:1005C000FA4F908190938B0510928A05909180004C
:1005D0009F739068909380008A3059F480918906C7
:1005E00090918A06280F391F309389002093880044
:1005F00009C0809184009091850040969093890075
:100600008093880081E080938306FF91EF919F9112
:100610008F917F916F915F914F913F912F910F90AB
:100620000FBE0F901F9018951F920F920FB60F924A
:1006300011242F933F934F935F936F937F938F93E7
:100640009F93AF93BF93EF93FF9380912D018130E0
:1006500041F480914505811102C010924405109229
:10066000450580912D01823009F07BC180912405E0
:10067000982F907F903951F1903A09F449C0903801
:1006800009F060C1E2E0F1E020E030E08F7090819D
:10069000911113C0F901EE0FFF1F2E0F3F1FF9013B
:1006A000E050FF4F82834091230550E063E275E004
:1006B0008FE995E00E94EF1639C1981759F32F5F23
:1006C0003F4F33962B30310511F73CC1E2E0F1E0AA
:1006D00020E030E08F709081981313C096E09093E3
:1006E0009F0580578093A005F901EE0FFF1F2E0F85
:1006F0003F1FF901E050FF4F80818093A105818168
:1007000011C12F5F3F4F33962B30310521F71AC1AE
:10071000E2E0F1E020E030E08F70908198130BC1AF
:10072000F901EE0FFF1F2E0F3F1FF901E050FF4FA1
:10073000918124E0290F20939F0580568093A00586
:10074000808141EA55E0FA012E2F241B291710F46D
:100750001192FACF8C3009F4B7C098F5863009F4BD
:10076000CCC0F8F4833009F4CDC080F4813009F0B6
:10077000DBC08091FE049091FF0420E9280F2093B4
:10078000A10580579E4F9093A205CEC0843009F4F6
:10079000AFC0853009F0C8C090910405809105056F
:1007A000BFC0883009F49AC008F49DC0893009F4AC
:1007B00090C08A3009F0B8C090910C0580910D0569
:1007C000AFC0813809F479C080F48E3009F453C089
:1007D00008F456C0813409F49AC08E3709F0A4C0D9
:1007E0009091F8048091F9049BC0843809F494C076
:1007F00078F4823809F44BC0833809F095C08091B1
:100800001D0590911E0520911F053091200547C0C0
:10081000893F09F44DC08D3F09F086C080912205C3
:100820008093A105809121058093A20580911D05EB
:1008300090911E0520911F05309120053093A3054E
:100840002093A4059093A5058093A60580911C058F
:100850008093A705809115059091160520911705A5
:10086000309118053093A8052093A9059093AA0507
:100870008093AB0559C0909111058091120550C02D
:10088000809110058093A1051092A2054DC0809122
:10089000190590911A0520911B0530911C05309384
:1008A000A1052093A2059093A3058093A4053CC0C5
:1008B000909115058091160533C080912205809393
:1008C000A105809121052EC090910E0580910F0504
:1008D00027C090910A0580910B0522C090910805D0
:1008E000809109051DC0909106058091070518C0EB
:1008F000909102058091030513C0909100058091AD
:1009000001050EC09091FC048091FD0409C09091F6
:10091000FA048091FB0404C09091F6048091F704DE
:100920009093A1058093A2050E945B0B80919F0587
:100930000E94470B07C02F5F3F4F33962B30310586
:1009400009F0EBCE81E080932D01F8941092950090
:10095000109294008FE691E0909399008093980014
:100960007894FF91EF91BF91AF919F918F917F917B
:100970006F915F914F913F912F910F900FBE0F900C
:100980001F9018951F920F920FB60F9211242F935C
:100990003F938F939F93EF93FF9390919C0580914A
:1009A0009B05981730F480919D0590919E050097C6
:1009B00061F410929C0510929B0510929E05109276
:1009C0009D0580E98093C9000CC020919C0531E011
:1009D000320F30939C05FC01E20FF11D8081809362
:1009E000CE00FF91EF919F918F913F912F910F90AA
:1009F0000FBE0F901F9018951F920F920FB60F9277
:100A000011242F933F934F935F936F937F938F9313
:100A10009F93EF93FF938091CE00E0914405F0E027
:100A2000ED5DFA4F808381E0809345058091440518
:100A3000803228F4809144058F5F80934405809133
:100A40004405882321F080912305813228F5809187
:100A50004405882321F0809123058430E8F08091BB
:100A60004405882321F08091230580FD15C08091E5
:100A70004405823028F180912405807F803801F17F
:100A8000909144059230E0F08039D1F09091440586
:100A90009230B0F0803AA1F01092440520E020930B
:100AA0009A05FF91EF919F918F917F916F915F9147
:100AB0004F913F912F910F900FBE0F901F9018955F
:100AC00080914405843050F3909144058091230532
:100AD000981720F3109244059EEF980F23E235E01B
:100AE000F9014FEF5FEF6E2F621B691720F46191E0
:100AF000461B5109F8CF90E08D5D9A4FFC0131976C
:100B0000208130E0322F222731978081B901680F90
:100B1000711D21E04617570709F6C1CF4F925F922A
:100B20006F927F928F929F92AF92BF92CF92DF92FD
:100B3000EF92FF920F931F93CF93DF93CDB7DEB762
:100B400028970FB6F894DEBF0FBECDBF88E196E0C0
:100B50000E94620F892B09F4D9C488E196E00E94B3
:100B6000840F7C01182F10929A0280919D0290911F
:100B70009E028B30910508F0B7C0FC01EA5AFF4F86
:100B80000C947E131E3F09F0AFC082E090E090937A
:100B90009E0280939D021092A902E092A8028FEF1C
:100BA0009FEF9093A7028093A6029EC0E092A902B5
:100BB00010929F0266EA72E08E2D0E942F0184E05F
:100BC00090E02EC0E092AA0266EA72E08E2D0E94AA
:100BD0002F0183E090E024C0E092AB0266EA72E06D
:100BE0008E2D0E942F0185E090E01AC0E092AC02A9
:100BF00066EA72E08E2D0E942F0186E090E010C020
:100C0000E092AD0266EA72E08E2D0E942F01809183
:100C1000A902811103C088E090E002C087E090E063
:100C200090939E0280939D025FC0E0919F0281E0BD
:100C30008E0F80939F02F0E0E255FD4FE08266EA5E
:100C400072E08E2D0E942F0190919F028091A90247
:100C500098134AC0E0CFE091AD02F0E0E25DFE4FB4
:100C600066EA72E080810E942F018091A602909135
:100C7000A7029927970133272817390719F08AE027
:100C800090E002C089E090E090939E0280939D02E4
:100C9000E0919F02F0E0E255FD4FE08225C00A9707
:100CA00041F08091A70290E0970133272817390778
:100CB00011F082E001C081E080939A0281E090E02F
:100CC00090939E0280939D02E0919F02F0E0E15597
:100CD000FD4FE08280E191E0E6EAF2E0A6EEB3E0CB
:100CE00001900D920197E1F720919A02213099F439
:100CF0008091AA028093A0028091A2029091A30207
:100D0000009721F41092A5021092A40201969093EC
:100D1000A3028093A2028091A9028093E9038091AB
:100D20009D0290919E029093DE038093DD0380915B
:100D30009F028093DF039091A0029F5F9093E00356
:100D40004091A2025091A3025093E3034093E20327
:100D500040919C0250E05093E5034093E4031092CD
:100D60009C022230A9F590E0FC01E155FD4F408145
:100D7000042E000C550B542F4427FC01E255FD4F67
:100D80002081022E000C330BCA01822B932B9093EF
:100D9000E7038093E60381E080939C0210929A021D
:100DA0001E3F79F482E090E090939E0280939D0232
:100DB0001092A9028FEF9FEF9093A7028093A60253
:100DC000A5C381E090E090939E0280939D029EC314
:100DD000222309F49BC38091ED038823A9F091E0BD
:100DE0009093D9038D3109F499C238F4813009F414
:100DF0005AC0883109F475C089C38E3109F43FC2E5
:100E00008A3409F4C1C282C389E592E00E94750B5D
:100E10008091D5039091D603A091D703B091D803C8
:100E20000196A11DB11D8093D5039093D603A09385
:100E3000D703B093D8030497A105B10528F080919A
:100E4000D903882309F459C38091EE039091EF03ED
:100E5000A091F003B091F10380319105A105B10596
:100E600021F488E090E0A0E0B0E080931105909339
:100E70001205A0931305B09314058091F20380939B
:100E8000D4038091F403482F50E060E070E0409379
:100E9000D0035093D1036093D2037093D30380782F
:100EA0008093100533C32091FC033091FD03ADEC1A
:100EB000BCEC0E94841353E0969587955A95E1F710
:100EC0009093FD048093FC048091FE039091FF03B6
:100ED000909305058093040580910C048093CF03C3
:100EE00015C38090F6039090F703A090F803B0909C
:100EF000F90380921D0590921E05A0921F05B092E5
:100F00002005C090FA03D090FB03E090FC03F09022
:100F1000FD03C0921905D0921A05E0921B05F092CC
:100F20001C056091FE037091FF0380910004909175
:100F300001042DEC3CEC40E050E00E949E1300E1E7
:100F40000E94D81329833A834B835C836D837E830D
:100F50008F83988789819A81AB81BC8143E0B59565
:100F6000A795979587954A95D1F780931505909306
:100F70001605A0931705B093180530910A04309315
:100F8000220520910B0420932105409108045091E3
:100F900009045093CE034093CD034091CC034111FB
:100FA0001FC03230E8F02630D8F021E02093CC0387
:100FB0008093C8039093C903A093CA03B093CB0353
:100FC0008092C4039092C503A092C603B092C70357
:100FD000C092C003D092C103E092C203F092C30357
:100FE00084E792E00E94750B88E792E00E94750BFF
:100FF0006091210570E080E090E04AE00E948D0B56
:1010000088E792E00E94750B8091C0039091C10324
:10101000A091C203B091C30389839A83AB83BC833D
:10102000C090C403D090C503E090C603F090C703FE
:101030008090190590901A05A0901B05B0901C0592
:1010400040901D0550901E0560901F057090200572
:101050008091BA039091BB03A091BC03B091BD03F2
:10106000892B8A2B8B2B61F08091B6039091B7036B
:10107000A091B803B091B903892B8A2B8B2BD9F59A
:10108000C301B2016C0D7D1D8E1D9F1D22E030E05D
:1010900040E050E00E945F13CA01B9010E94C014F1
:1010A00020E530EE4FEE50E30E94D1150E948314EC
:1010B00020E437E144ED5CE40E94D1150E946C14F9
:1010C0000E948F146093BA037093BB038093BC0398
:1010D0009093BD0320EE36ED40E050E00E94AD134A
:1010E00007E20E94D8132093B6033093B7034093CE
:1010F000B8035093B9034C145D046E047F042CF4C0
:10110000C418D508E608F70808C0D301C2018C1935
:101110009D09AE09BF096C017D0189819A81AB816E
:10112000BC8188169906AA06BB063CF49C01AD0159
:10113000281939094A095B090AC0A5019401898166
:101140009A81AB81BC81281B390B4A0B5B0B6091E8
:1011500014067091150680911606909117060E944C
:101160002D134B015C016091B6037091B703809120
:10117000B8039091B903A70196010E942D132B018A
:101180003C0138EEC32E33E0D32EE12CF12CC50107
:10119000B401A70196010E943D1349015A01C30100
:1011A000B201A70196010E943D1369017A01A501D0
:1011B0009401C501B4010E942D134B015C01A701EC
:1011C0009601C701B6010E942D13680D791D8A1D75
:1011D0009B1D0E94BE140E9444160E946C140E9423
:1011E0008F1470930F0560930E058BE792E00E94B9
:1011F000750B60911D0570911E0580911F059091E2
:1012000020050E94F50B81E892E00E94750B609129
:10121000190570911A0580911B0590911C050E947B
:10122000F50B87E892E00E94750B60910E057091B6
:101230000F05072E000C880B990B97FF03C00E9427
:10124000CE0B03C04AE00E948D0B88E792E02896FF
:101250000FB6F894DEBF0FBECDBFDF91CF911F91C7
:101260000F91FF90EF90DF90CF90BF90AF909F9045
:101270008F907F906F905F904F900C94750B21EE44
:101280003EE245E652E46091F6037091F7038091E7
:10129000F8039091F9030E94D11520E030E048EC6A
:1012A00052E40E94D1150E94881470930B0560933C
:1012B0000A0521EE3EE245E652E46091F2037091A8
:1012C000F3038091F4039091F5030E94D11520E07F
:1012D00030E048EC52E40E94D1150E9488147093CB
:1012E00009056093080521EE3EE245E652E460916F
:1012F000FA037091FB038091FC039091FD030E941F
:10130000D11520E030E048EC52E40E94D1150E9453
:1013100088147093070560930605F8C0C090F20327
:10132000D090F303E090F403F090F50320E030E078
:10133000A901C701B6010E94CC1520E030E040E0D1
:101340005FE387FD05C0C701B6010E94001404C019
:10135000C701B6010E94FF130E9488147093FB041A
:101360006093FA042091FA033091FB03ADECBCECDE
:101370000E94841323E0969587952A95E1F7909330
:10138000FF048093FE04C2C020E030E048EC52E449
:101390006091EE037091EF038091F0039091F1035F
:1013A0000E94D1156B017C0120E030E0A9010E9470
:1013B000CC1520E030E040E05FE387FD05C0C701C9
:1013C000B6010E94001404C0C701B6010E94FF13B9
:1013D0000E94881470930D0560930C0520E030E0A6
:1013E00048EC52E46091F2037091F3038091F403AE
:1013F0009091F5030E94D1156B017C0120E030E053
:10140000A9010E94CC1520E030E040E05FE387FDB9
:1014100005C0C701B6010E94001404C0C701B6018F
:101420000E94FF130E9488147093F9046093F804DB
:101430008091FE039091FF03909303058093020532
:1014400080910004909101049093BF038093BE03A8
:1014500020E030E048EC52E46091F6037091F7032D
:101460008091F8039091F9030E94D1156B017C01E2
:1014700020E030E0A9010E94CC1520E030E040E0FF
:101480005FE387FD05C0C701B6010E94001404C0D8
:10149000C701B6010E94FF130E9488147093F704DD
:1014A0006093F60420E030E048EC52E46091FA03E7
:1014B0007091FB038091FC039091FD030E94D11574
:1014C0006B017C0120E030E0A9010E94CC1520E0F6
:1014D00030E040E05FE387FD05C0C701B6010E9430
:1014E000001404C0C701B6010E94FF130E948814B3
:1014F000709301056093000509C01092D503109206
:10150000D6031092D7031092D8039ECC28960FB61C
:10151000F894DEBF0FBECDBFDF91CF911F910F9129
:10152000FF90EF90DF90CF90BF90AF909F908F9003
:101530007F906F905F904F90089580912906811160
:101540000DC082E08093250684E0809326061092E9
:1015500028061092270681E08093290685E296E00E
:101560000895CF92DF92EF92FF920F931F93CF9344
:10157000DF931F92CDB7DEB7182F062FE42E862FEC
:10158000880F8E5F99830E94651083E00E9465102A
:10159000F12EC12E9981D92E8C2D8F19801798F498
:1015A000F601E7FE02C0849101C080810E946510AF
:1015B000182F80E00E9465108123FFEFCF1ADF0A09
:1015C0008111EACF01C081E00F90DF91CF911F918F
:1015D0000F91FF90EF90DF90CF900895DF92EF9200
:1015E000FF920F931F93CF93DF93D82E8A017B0135
:1015F000E40EF51EEB01CE15DF0571F0D7FE03C03A
:10160000FE01849101C088810E946510219681119C
:10161000F2CF8FEF9FEF01C0C801DF91CF911F91F3
:101620000F91FF90EF90DF9008950F931F93CF934A
:10163000DF931F92CDB7DEB782E0898342E450E0AA
:101640006EEF70E080E80E94EE0A0E949D0ADC01C5
:1016500012960D911C9113970115110569F0D8018F
:10166000ED91FC910280F381E02DBE016F5F7F4F11
:10167000C801099597FF07C089810F90DF91CF912D
:101680001F910F910895F80100851185E5CF8823FA
:1016900089F02FE935E030939E0520939D05109247
:1016A0009C0580939B0510929A05F89488E280939C
:1016B000C9007894089580919F0582504FE955E0C4
:1016C000FA012FEF3FEF9E2F941B981720F4919172
:1016D000291B3109F8CF90E0FC01E156FA4F208335
:1016E000FC01E056FA4F30830895BC01009791F059
:1016F000FC0101900020E9F73197AF01481B590B1D
:10170000E091C005F091C1050280F381E02D80ECED
:1017100095E0099480E090E008958F929F92AF92B7
:10172000BF920F931F93CF93DF93CDB7DEB7A197EF
:101730000FB6F894DEBF0FBECDBF19A2423008F439
:101740004AE08E010F5D1F4F842E912CA12CB12CED
:10175000A50194010E943D13E62FB901CA01015071
:101760001109EA3014F4E05D01C0E95CD801EC93A2
:10177000232B242B252B61F7C8010E94750BA19602
:101780000FB6F894DEBF0FBECDBFDF91CF911F9192
:101790000F91BF90AF909F908F900895CF92DF925E
:1017A000EF92FF92CF93DF936B017C01E091C00534
:1017B000F091C1050190F081E02D6DE280EC95E0A3
:1017C0000995EC0166277727CB016C197D098E09F5
:1017D0009F094AE00E948D0B8C0F9D1FDF91CF91D6
:1017E000FF90EF90DF90CF900895CF93DF9397FF16
:1017F00003C00E94CE0B03C04AE00E948D0BEC0197
:1018000088E792E00E94750B8C0F9D1FDF91CF91AE
:101810000895CF92DF92EF92FF920E94A0106B0189
:101820007C010E94A010DC01CB018C199D09AE093E
:10183000BF09883E9340A105B10598F3FF90EF9052
:10184000DF90CF900895FC0180919905811103C02C
:101850008FEF9FEF08959FB7F89482E08093E9009F
:101860002091F20030E01216130614F421E030E06B
:101870002115310559F0289A84E6809398058091C6
:10188000F10080838091F200882319F09FBFC90185
:1018900008958BE68093E800F9CF1F920F920FB660
:1018A0000F9211248F939F938091E1009091E1001A
:1018B000937F9093E10083FF0FC01092E90091E0C5
:1018C0009093EB001092EC0092E39093ED00109255
:1018D000990598E09093F00082FF20C093E09093E8
:1018E000E9009091F200992319F09AE39093E800AF
:1018F00090919705992339F0909197059150909385
:101900009705992389F190919805992339F0909141
:101910009805915090939805992341F184FF10C048
:101920008091E2008E7E81608093E2008091E100F0
:101930008F7E8093E100809196058E7E806111C03C
:1019400080FF16C08091E2008E7E80618093E2006D
:101950008091E1008E7E8093E100809196058E7EDD
:1019600081608093960504C05D98CDCF2898D6CF2E
:101970009F918F910F900FBE0F901F9018951F92FF
:101980000F920FB60F921124CF92DF92EF92FF9237
:101990000F931F932F933F934F935F936F937F9377
:1019A0008F939F93AF93BF93EF93FF93CF93DF9367
:1019B000CDB7DEB76C97DEBFCDBF1092E900809146
:1019C000E80083FFFAC168E0CE0145960E949310BB
:1019D00082EF8093E8008D8987FF05C09091E80031
:1019E00090FFFCCF03C09EEF9093E800982F907675
:1019F00009F0C6C09E892F89188D91110CC08038BE
:101A000029F4809195058093F10002C01092F100B5
:101A10001092F10047C1422F50E0512B913051F408
:101A2000811140C14130510509F03CC180919505BB
:101A30008D7F0BC0933061F4811134C14130510569
:101A400009F030C1809195058260809395052AC187
:101A5000953041F48091E80080FFFCCF206820930E
:101A6000E30020C1963009F05FC0EB8CFC8C109233
:101A7000E9001092930510929205123091F51092A0
:101A80009105109290050E94150B99E0BE016F5FC1
:101A90007F4FDB01E92F1D92EA95E9F799831A83BD
:101AA00091E09E8390EA98879AEF9987209192051A
:101AB00030919305275F3F4F3C832B838D8310929A
:101AC000E9001092930510929205F0929105E09230
:101AD000900549E050E080E00E94EE0A0E94150B5C
:101AE000E1C0F0929105E09290050E949D0ADC0110
:101AF0001296ED90FC901397E114F10409F4C0C024
:101B0000D701ED91FC910480F581E02DBE016B5E63
:101B10007F4FC7010995009719F00CF0C3C0C6C0EC
:101B2000F701E084F184E8CF973009F4BFC0983022
:101B300021F481E08093F100B5C0993009F0B2C082
:101B4000837009F0B3C0EFE2F2E081E021E036E318
:101B50009081992361F08093E9002093EB009191AB
:101B60009093EC003093ED008F5F873089F78EE71C
:101B70008093EA001092EA008F898093990592C0C1
:101B80008B8D9C8D1092E900109293051092920516
:101B90009093910580939005898D811156C08E890F
:101BA0009D89913A59F4813209F080C047E050E0B4
:101BB00065E271E080E00E94EE0A74C0913209F0A3
:101BC00075C0833289F4888D90E0982F88272F89FB
:101BD000822BA0E0B0E08093210190932201A0939A
:101BE0002301B09324015EC0803269F48091E80043
:101BF00082FFFCCF67E085E291E00E9493108BEFBB
:101C00008093E80006C0823209F04CC08F8980932F
:101C10002C0180919405882319F0EEEFFAE002C0C0
:101C2000E0E0F8E08091250190912601A091270144
:101C3000B0912801803B9440A105B10509F088C00E
:101C400080912C0180FFA0C083C00E949D0ADC010E
:101C500012960D911C9113970115110539F1D801B8
:101C6000ED91FC910190F081E02DBE016B5E7F4F04
:101C7000C8010995811116C0F80100851185ECCFC6
:101C80001130C1F0133091F48F89882309F455C0C5
:101C90008230E9F440E86DE080E591E00E94B10A0D
:101CA000882321F08EEF8093E80087C081E2809343
:101CB000EB0083C08B8D9C8D089711F41093240644
:101CC00080912406811136C06EE571E038C0813004
:101CD00029F440E86BE084E491E0E0CF833031F711
:101CE0000E949D0ADC011296ED90FC9013978E01E4
:101CF0000F5F1F4F6801E114F10479F0D701ED91F6
:101D0000FC910680F781E02DB801C7010995080F05
:101D1000111DF701E084F184EECFD8011C92F60189
:101D200001900020E9F73197BF016C197D0940E06F
:101D3000C601B4CF60E771E002C060E471E06115F4
:101D4000710509F4B3CFFB01449150E080E833CF33
:101D50000FB6F894A8958091600088618093600028
:101D6000109260000FBEA895EE3F2AE0F20739F00E
:101D70008091FE0A9091FF0A9183808393CF109205
:101D8000FF0A1092FE0A8ECFEE3F8AE0F80731F08C
:101D9000808191819093FF0A8093FE0A87E797E7FD
:101DA000918380839BE088E10FB6F894A895809397
:101DB00060000FBE9093600075CF6C960FB6F894DC
:101DC000DEBF0FBECDBFDF91CF91FF91EF91BF91ED
:101DD000AF919F918F917F916F915F914F913F91C3
:101DE0002F911F910F91FF90EF90DF90CF900F9068
:101DF0000FBE0F901F901895CF92DF92EF92FF9237
:101E00000F931F93CF93DF936C017A018B01C0E096
:101E1000D0E0CE15DF0589F0D8016D918D01D60196
:101E2000ED91FC910190F081E02DC6010995892B7F
:101E300011F47E0102C02196ECCFC701DF91CF9152
:101E40001F910F91FF90EF90DF90CF900895CF9367
:101E5000DF931F92CDB7DEB76983DC01ED91FC9172
:101E60000280F381E02D41E050E0BE016F5F7F4FC3
:101E700009950F90DF91CF91089583E08093E90059
:101E80008091F200882319F08AE38093E800089596
:101E9000FC018485958597FD0BC09FB7F89482E07F
:101EA0008093E9008091F2009FBF90E00196089531
:101EB0009FB7F89482E08093E9008091F2009FBF81
:101EC00090E008955091850640918406852F90E01A
:101ED000242F30E0541710F4805B9F4F821B930B2C
:101EE000089580918506E09184068E1751F0EF5F8A
:101EF000E03508F0E0E0F0E0EF5CF94F808190E041
:101F000008958FEF9FEF0895809185069091840644
:101F1000891769F09F5F903508F090E0E92FF0E0B5
:101F2000EF5CF94F80819093840690E008958FEFE5
:101F30009FEF08958F929F92AF92BF92CF92DF92C0
:101F4000EF92FF920F931F93CF93DF935C016B018E
:101F50008A0180912C01882309F459C08091990548
:101F6000882309F454C08091960580FF05C08091B4
:101F7000E00082608093E000E8018AEFF82E93E0B1
:101F8000E92E2FE3822E3AE3932E2097C9F18FB7E3
:101F9000F894E092E9009091E80095FF06C09091D6
:101FA000F200282D291B922F01C090E08FBF9111C4
:101FB00006C0FA94FF2059F10E94090CE6CF292FA0
:101FC00030E0C217D3070CF49C2F8FB7F894E0923F
:101FD000E9002091E80025FF11C0292F30E0C21B45
:101FE000D30BF601915020F041914093F100FACFCC
:101FF000C20ED31E9091E80095FF13C08FBFC5CFCE
:102000005D9A84E6809397051016110644F081E0EE
:1020100090E0F5019383828380E090E005C0C801E1
:1020200003C09092E800EACFDF91CF911F910F910A
:10203000FF90EF90DF90CF90BF90AF909F908F90E8
:1020400008950F931F93CF93DF931F92CDB7DEB701
:102050008C01FC018485958597FF0EC0CE01019609
:102060000E94230C019719F4298130E002C02FEF60
:102070003FEFF80135872487F801848595850F9017
:10208000DF91CF911F910F910895CF93DF931F920E
:10209000CDB7DEB7FC018485958597FD05C02FEF90
:1020A0003FEF358724870BC0CE0101960E94230C99
:1020B000019719F4898190E002C08FEF9FEF0F9094
:1020C000DF91CF9108950E94EA16409192055091B8
:1020D0009305209190053091910542175307B4F470
:1020E0009091E8009570E1F39091E80092FD19C09D
:1020F0008093F100809192059091930501968F73E2
:102100009927892B19F48EEF8093E800809192052E
:10211000909193050196909393058093920581E0A9
:10212000089580E00895615030F02091F100FC01A5
:1021300020830196F8CF289A84E680939805089525
:102140003FB7F8948091900690919106A0919206E5
:10215000B091930626B5A89B05C02F3F19F00196B4
:10216000A11DB11D3FBFBA2FA92F982F8827820F1D
:10217000911DA11DB11DBC01CD0142E0660F771F6D
:10218000881F991F4A95D1F708951F920F920FB695
:102190000F9211242F933F938F939F93AF93BF93ED
:1021A00080918C0690918D06A0918E06B0918F063D
:1021B00030918B0623E0230F2D3720F40196A11DCB
:1021C000B11D05C026E8230F0296A11DB11D209365
:1021D0008B0680938C0690938D06A0938E06B09309
:1021E0008F068091900690919106A0919206B091F1
:1021F00093060196A11DB11D8093900690939106C0
:10220000A0939206B0939306BF91AF919F918F9147
:102210003F912F910F900FBE0F901F90189589E45A
:1022200092E0909319068093180680916F008B7F3F
:1022300080936F0080916F008F7D80936F008091FD
:10224000840680938506809183068111FCCF80915E
:102250006F008D7F80936F000895E0ECF5E01382AE
:10226000128288EE93E0A0E0B0E084839583A68399
:10227000B78329E332E0318320832FEF3FEF3587A7
:102280002487E8E1F6E01382128284839583A68393
:10229000B78389E492E0918380838BE090E0A0E0B3
:1022A000B0E08093140690931506A0931606B093A1
:1022B00017060E94A0106093100670931106809379
:1022C0001206909313060895789484B5826084BDB5
:1022D00084B5816084BD85B5826085BD85B581602A
:1022E00085BD80916E00816080936E0010928100A8
:1022F0008091810082608093810080918100816063
:102300008093810080918000816080938000809123
:102310009100826080939100809191008160809310
:102320009100809190008160809390008091C10025
:1023300084608093C1008091C10082608093C1005D
:102340008091C10081608093C1008091C300816051
:102350008093C3008091C00082608093C000809110
:10236000C20081608093C20080917A008460809373
:102370007A0080917A00826080937A0080917A005E
:10238000816080937A0080917A00806880937A00DF
:102390001092990510929505109296058091D7009C
:1023A00081608093D70080EA8093D80089B58061EE
:1023B00089BD89B5826089BD09B400FEFDCF0E9448
:1023C000090C8091D8008F7C80618093D800809127
:1023D000E000807F8093E0008091E1008E7E80931A
:1023E000E1008DE08093E200559A209A5D9828984C
:1023F000EEEFFFE7859194918B3F9C4D19F481E0BE
:10240000809394051092CD0080E18093CC00809160
:10241000C80082608093C80086E08093CA0088E18B
:102420008093C90010929C0510929B0510929A050A
:1024300010929E0510929D058091C900806880933E
:10244000C900F8941092900010929100109295009B
:102450001092940081EB90E0909399008093980003
:1024600080919100886080939100809191008360B9
:1024700080939100809171008260809371007894C4
:1024800010926F001092800081E88093810086E1B5
:1024900091E090938A06809389068BE09AE090936E
:1024A000880680938706E0EEF1E02491E1ECF1E00C
:1024B00084918823C1F090E0880F991FFC01E155B9
:1024C000FE4FC591D491FC01EF55FE4FA591B491FB
:1024D0009FB7F8943881822F809583238883EC916D
:1024E000E22BEC939FBFEBE8F1E04491A5EEB1E065
:1024F000FD01C49186EC91E0FC012491222309F4B2
:102500004DC04423E1F150E0FA013197EF30F1057D
:10251000B0F5EF59FF4F0C947E13309180003F7758
:1025200007C0309180003F7D03C030918000377F2D
:102530003093800024C034B53F7702C034B53F7D6E
:1025400034BD1DC0309190003F7707C0309190009E
:102550003F7D03C030919000377F309390000FC0D3
:102560003091C0003F7703C03091C0003F7D309371
:10257000C00005C03091C200377F3093C20030E008
:10258000220F331F2F553E4FF901459154912FB71C
:10259000F894FA013081C32BC0832FBFFD01A491B1
:1025A000FC018491882399F090E0880F991FFC0129
:1025B000E155FE4FC591D491FC01EF55FE4F859139
:1025C00094918FB7F8949881A92BA8838FBF10920C
:1025D0008606109285061092840610928306109249
:1025E00082061092810680E286BB80936F0084E6AB
:1025F0008093940682E3809395068FEF9FEF9093EC
:10260000CD058093CC058EE892E00E94750B88E79B
:1026100092E00E94750B81E080932D01C2E000E9F9
:1026200010E080912D01813019F0823099F0F9CFBE
:1026300080919A05813071F410929A05C0932D0112
:10264000F8941092950010929400109399000093C2
:10265000980078940E948E05E4CFDB018F939F93BE
:102660000E949313BF91AF91A29F800D911DA39FD4
:10267000900DB29F900D11240895A1E21A2EAA1B6D
:10268000BB1BFD010DC0AA1FBB1FEE1FFF1FA21722
:10269000B307E407F50720F0A21BB30BE40BF50B1F
:1026A000661F771F881F991F1A9469F760957095A8
:1026B000809590959B01AC01BD01CF010895052E39
:1026C00097FB1EF400940E94761357FD07D00E94DA
:1026D0003D1307FC03D04EF40C94761350954095AF
:1026E000309521953F4F4F4F5F4F089590958095BE
:1026F000709561957F4F8F4F9F4F0895EE0FFF1F8D
:102700000590F491E02D0994A29FB001B39FC00100
:10271000A39F700D811D1124911DB29F700D811D0D
:102720001124911D08950E948413A59F900DB49FBC
:10273000900DA49F800D911D1124089597FB57FFC4
:102740000C94AE139F938F930E94AE136E1B7F0B5E
:10275000AF91BF918A0B9B0B0895E894DF93CF93C1
:10276000FC01DB010E9484137F936F93E9019A01BE
:10277000AC01BF93AF933F932F93DF010E9484136B
:1027800026F46C1B7D0B820B930B9E01EB01FC016D
:102790000E94F613AF91BF912F913F910E94F613C3
:1027A000BE01CF01F9012F913F91CF91DF910895A3
:1027B00097FB10F8169400080F93083098F0085013
:1027C000232F342F452F562F672F782F892F902DA9
:1027D000F4CF059497958795779567955795479585
:1027E000379527950A95AAF70F9108950E948413AB
:1027F000460F571FC81FD91F08F431960895505827
:10280000BB27AA270E9417140C9466150E942D1549
:1028100038F00E94341520F039F49F3F19F426F463
:102820000C942A150EF4E095E7FB0C94FB14E92FA9
:102830000E948B1558F3BA17620773078407950730
:1028400020F079F4A6F50C94C5150EF4E0950B2E46
:10285000BA2FA02D0B01B90190010C01CA01A001F2
:102860001124FF27591B99F0593F50F4503E68F14D
:102870001A16F040A22F232F342F4427585FF3CF8E
:10288000469537952795A795F0405395C9F77EF45F
:102890001F16BA0B620B730B840BBAF09150A1F0A8
:1028A000FF0FBB1F661F771F881FC2F70EC0BA0F2E
:1028B000621F731F841F48F4879577956795B795B6
:1028C000F7959E3F08F0B0CF9395880F08F09927B1
:1028D000EE0F9795879508950E94AD1590F09F375C
:1028E00048F4911116F40C94C61560E070E080E88D
:1028F0009FE3089526F01B16611D711D811D0C9428
:1029000001150C941C150E943D15E3950C94771548
:102910000E948F146894B1110C94C61508950E94FA
:10292000931588F09F5798F0B92F9927B751B0F0B9
:10293000E1F0660F771F881F991F1AF0BA95C9F743
:1029400014C0B13091F00E94C515B1E008950C9407
:10295000C515672F782F8827B85F39F0B93FCCF3BA
:10296000869577956795B395D9F73EF490958095C0
:10297000709561957F4F8F4F9F4F0895E89409C0E0
:1029800097FB3EF490958095709561957F4F8F4FA2
:102990009F4F9923A9F0F92F96E9BB279395F695B8
:1029A000879577956795B795F111F8CFFAF4BB0F36
:1029B00011F460FF1BC06F5F7F4F8F4F9F4F16C09A
:1029C000882311F096E911C0772321F09EE8872F24
:1029D000762F05C0662371F096E8862F70E060E0E0
:1029E0002AF09A95660F771F881FDAF7880F969559
:1029F000879597F9089597F99F6780E870E060E000
:102A00000895882371F4772321F09850872B762F2F
:102A100007C0662311F499270DC09051862B70E0F2
:102A200060E02AF09A95660F771F881FDAF7880F03
:102A30009695879597F908959F3F31F0915020F42E
:102A4000879577956795B795880F911D969587958A
:102A500097F908959FEF80EC089500240A941616C4
:102A6000170618060906089500240A94121613067C
:102A70001406050608950C942A150E949315D8F3A0
:102A8000E894E0E0BB279F57F0F02AED3FE049ECE7
:102A900006C0EE0FBB0F661F771F881F28F0B23AE3
:102AA00062077307840728F0B25A620B730B840B1A
:102AB000E3959A9572F7803830F49A95BB0F661FAC
:102AC000771F881FD2F790480C941E15092E039487
:102AD000000C11F4882352F0BB0F40F4BF2B11F40B
:102AE00060FF04C06F5F7F4F8F4F9F4F0895EF933C
:102AF000E0FF07C0A2EA2AED3FE049EC5FEB0E944D
:102B000017140E9466150F90039401FC9058E0EE94
:102B1000F0E00C94AF1657FD9058440F551F59F034
:102B20005F3F71F04795880F97FB991F61F09F3FBA
:102B300079F087950895121613061406551FF2CFE3
:102B40004695F1DF08C0161617061806991FF1CF33
:102B5000869571056105089408950E949315A0F06B
:102B6000BEE7B91788F4BB279F3860F41616B11D6D
:102B7000672F782F8827985FF7CF86957795679589
:102B8000B11D93959639C8F30895E894BB2766273D
:102B90007727CB0197F908950E94841608F48FEFE8
:102BA00008950E94E4150C9466150E942D1538F0C6
:102BB0000E94341520F0952311F00C94FB140C9412
:102BC0002A1511240C94C6150E948B1570F3959F3D
:102BD000C1F3950F50E0551F629FF001729FBB2714
:102BE000F00DB11D639FAA27F00DB11DAA1F649FB0
:102BF0006627B00DA11D661F829F2227B00DA11D63
:102C0000621F739FB00DA11D621F839FA00D611DE8
:102C1000221F749F3327A00D611D231F849F600D09
:102C2000211D822F762F6A2F11249F5750409AF032
:102C3000F1F088234AF0EE0FFF1FBB1F661F771FBE
:102C4000881F91505040A9F79E3F510580F00C9489
:102C5000FB140C94C6155F3FE4F3983ED4F38695BD
:102C600077956795B795F795E7959F5FC1F7FE2B29
:102C7000880F911D9695879597F9089519F416F484
:102C80000C942A150C941C150E949315B8F39923E3
:102C9000C9F3B6F39F57550B87FF0E94A81600246F
:102CA000A0E640EA900180585695979528F4805CFC
:102CB000660F771F881F20F026173707480730F464
:102CC000621B730B840B202931294A2BA69517947C
:102CD0000794202531254A2758F7660F771F881F4C
:102CE00020F026173707480730F4620B730B840B6C
:102CF000200D311D411DA09581F7B901842F9158F8
:102D0000880F969587950895990F0008550FAA0B7F
:102D1000E0E8FEEF16161706E807F907C0F01216EE
:102D20001306E407F50798F0621B730B840B950BF1
:102D300039F40A2661F0232B242B252B21F4089546
:102D40000A2609F4A140A6958FEF811D811D0895E3
:102D500091505040660F771F881FD2F708959F93B8
:102D60008F937F936F93FF93EF939B01AC010E942E
:102D7000D115EF91FF910E94C3162F913F914F9172
:102D80005F910C94D115DF93CF931F930F93FF9214
:102D9000EF92DF927B018C01689406C0DA2EEF017E
:102DA0000E94E415FE01E894A59125913591459185
:102DB0005591A6F3EF010E941714FE019701A80197
:102DC000DA9469F7DF90EF90FF900F911F91CF9108
:102DD000DF91089581E090E0F8940C94F816FB01DF
:102DE000DC0102C001900D9241505040D8F7089587
:102DF00011E0CFEFD0E004C0FE010E947E132196C7
:0A2E0000C030D107C9F7F894FFCFE6
:102E0A000E0200F902007E02000A0200090200080E
:102E1A0002000702000602000402008102000C02FE
:102E2A0000FFFFFFFF00E100000000000001327C0C
:102E3A008900EDD968770000005900000000000001
:102E4A000000D69FDCA81817AA90437327F6B96822
:102E5A00EDF4DED409FEE61C1C84DDE80B99292773
:102E6A004EC400000F030000000000A7B777BF762A
:102E7A00941500F37C000026149E988F0000006AC7
:102E8A0031168F8C059600E7B73F362F00000000F9
:102E9A000000AF669ED0385D8A6C20B95422AE7CA1
:102EAA00ED044C80387486EDCBFA57CBDC19E22E50
:102EBA001DDF5506E5CB01C36DA8B52F48837F00FA
:102ECA00679AB2C80000000000000000000000007D
:102EDA0000000000000000000000000000000000E8
:102EEA0000000000000000000000000000000000D8
:102EFA0000000000000000000000000000000000C8
:102F0A0000000000000000000000000000000000B7
:102F1A0000000000A3699723960000000000005AF1
:102F2A0068555F82B85108CC31AA2C532E0000C1D3
:102F3A00808100000000000000270F9A0F480F450B
:102F4A001021103D0F000000005101FC0E620F8499
:102F5A000F710F2A0100BAA0064D41564C494E4B3B
:102F6A005F4D53475F49445F48454152544245418A
:102F7A00543A2000733A20000D0A006C61743A201A
:102F8A00006C6F6E3A2000646973743A20005365CE
:0A2F9A0074757020646F6E6500000E
:00000001FF
